:100000000C9435000E945300189500000000000079
:1000100000000000000000000000000000000000E0
:1000200000000000000000000000000000000000D0
:1000300000000000000000000000000000000000C0
:1000400000000000000000000000000000000000B0
:1000500000000000000000000000000000000000A0
:100060000000000000000000000005E0442740936D
:1000700085004093840042E040936F0052985A9A62
:10008000E89A42E0409369007894549A5C98559AB3
:100090005D98569A5E985E9A219A299A229A2A9891
:1000A000239A2B9801C008950E947E0029982A9ACD
:1000B0000E9483002A985E982B9A5C9A0E947E0088
:1000C0005D9A5C980E9483005D982B98299A5E9AAD
:1000D000EBCF0E949B0029982A9A0E949B002A98A5
:1000E0005E982B9A5C9A0E949B005D9A5C980E9495
:1000F0009B005D982B98299A5E9AEBCF0E94830013
:100100000E94830008950E9488000E94880008953C
:100110000E948F000E9496000E94960008950E94FF
:1001200096000E9496000E94960008950E949B00EF
:100130000E949B00089520E118EC0AEF00000000E7
:0E0140000A95E1F71A95C9F72A95B1F70895C7
:00000001FF
