:100000000C9435000E945700189500000000000075
:1000100000000000000000000000000000000000E0
:1000200000000000000000000000000000000000D0
:1000300000000000000000000000000000000000C0
:1000400000000000000000000000000000000000B0
:1000500000000000000000000000000000000000A0
:100060000000000000000000000000E04427409372
:1000700085004093840042E040936F0052985A9A62
:10008000E89A42E0409369007894549A5C98559AB3
:100090005D98569A5E985E9A219A299A229A2A9891
:1000A000239A2B9806C0003011F000E0089501E07B
:1000B00008950E948F0029982A9A0E9496002A98F3
:1000C0005E982B9A5C9A0E948F005D9A5C980E94C1
:1000D00096005D982B98299A5E9A003051F300C0E3
:1000E0000E94A20029982A9A0E94A2002A985E984B
:1000F0002B9A5C9A0E94A2005D9A5C980E94A200D2
:100100005D982B98299A5E9AEBCF0E948A000E94F4
:100110008A0008950E948F000E948F0008950E9417
:1001200096000E949D000E949D0008950E949D00DF
:100130000E949D000E949D0008950E94A2000E94BE
:10014000A200089520E118EC0AEF000000000A95D3
:0C015000E1F71A95C9F72A95B1F7089558
:00000001FF
