:100000000C9434000C944A00000000000000000032
:1000100000000000000000000000000000000000E0
:1000200000000000000000000000000000000000D0
:1000300000000000000000000000000000000000C0
:1000400000000000000000000000000000000000B0
:1000500000000000000000000000000000000000A0
:10006000000000000000000030E052985A9AE89A20
:1000700042E0409369007894549A5C98559A5D9850
:10008000569A5E985E9A219A299A229A2A98239AD9
:100090002B9806C0303011F030E0189531E01895FB
:1000A0000E94880029982A9A0E948F002A985E98B8
:1000B0002B9A5C9A0E9488005D9A5C980E948F003F
:1000C0005D982B98299A5E9A303051F300C00E94B7
:1000D0009B0029982A9A0E949B002A985E982B9A46
:1000E0005C9A0E949B005D9A5C980E949B005D98C0
:1000F0002B98299A5E9A303099F2E9CF0E948300BA
:100100000E94830008950E9488000E94880008953C
:100110000E948F000E9496000E94960008950E94FF
:1001200096000E9496000E94960008950E949B00EF
:100130000E949B00089520E118EC0AEF00000000E7
:0E0140000A95E1F71A95C9F72A95B1F70895C7
:00000001FF
