:100000000C9434000C9450000C94B50000000000D7
:1000100000000000000000000000000000000000E0
:1000200000000000000000000000000000000000D0
:1000300000000000000000000000000000000000C0
:1000400000000000000000000000000000000000B0
:1000500000000000000000000000000000000000A0
:10006000000000000000000030E052985A9A539AB5
:100070005B9AE89AE99A49E0409369007894549A27
:100080005C98559A5D98569A5E9A219A299A229A76
:100090002A98239A2B98209A2898249A2C9A06C05A
:1000A000303011F030E0189531E018950E9496003C
:1000B00029982A9A0E949D002A985E982B9A5C9A09
:1000C000E9980E94B8000E9496005D9A5C980E9490
:1000D0009D005D982B98299A5E9AE99A303031F309
:1000E00000C00E94A90029982A9A0E94A9002A9873
:1000F0005E982B9A5C9AE9980E94B8000E94A90029
:100100005D9A5C980E94A9005D982B98299A5E9A46
:10011000E99A303059F2E5CF0E9491000E94910097
:1001200008950E9496000E94960008950E949D00E6
:100130000E94A4000E94A40008950E94A4000E94AE
:10014000A4000E94A40008950E94A9000E94A90092
:10015000089520E118EC0AEF000000000A95E1F78D
:100160001A95C9F72A95B1F70895289A2C981895E9
:0601700028982C9A089566
:00000001FF
