:10000000549A5C98559A5D98569A5E985E9A219A91
:100010002998299A229A2A98239A2B9815C00E94E7
:10002000390029982A9A0E943E002A985E982B9AB5
:100030005C9A0E9439005D9A5C980E943E005D982F
:100040002B98299A5E9AEBCF0E943E0029982A9A13
:100050000E9443002A985E982B9A5C9A0E943E0068
:100060005D9A5C980E9443005D982B98299A5E9A4D
:10007000EBCF0E943E000E943E0008950E94430084
:100080000E94430008950E944A000E9451000E946D
:10009000510008950E9451000E9451000E94510099
:1000A00008950E9456000E945600089520E118EC21
:1000B0000AEF000000000A95E1F71A95C9F72A95A2
:0400C000B1F70895F7
:00000001FF
