:100000000C9436000C945B0000000000000000001F
:1000100000000000000000000000000000000000E0
:1000200000000000000000000000000000000000D0
:1000300000000000000000000000000000000000C0
:1000400000000000000000000000000000000000B0
:100050000000000000000C945B00000000000000A5
:100060000000000000000000000000007894549A96
:100070005C98559A5D98569A5E985E9A219A29984E
:10008000299A229A2A98239A2B9800C00E947000DD
:1000900029982A9A0E9475002A985E982B9A5C9A51
:1000A0000E9470005D9A5C980E9475005D982B9884
:1000B000299A5E9AEBCF0E948D0029982A9A0E9475
:1000C0008D002A985E982B9A5C9A0E948D005D9A0A
:1000D0005C980E948D005D982B98299A5E9AEBCFD0
:1000E0000E9475000E94750008950E947A000E9487
:1000F0007A0008950E9481000E9488000E94880072
:1001000008950E9488000E9488000E948800089537
:100110000E948D000E948D00089520E118EC0AEFE6
:10012000000000000A95E1F71A95C9F72A95B1F782
:02013000089530
:00000001FF
